{
  "_format": "hh-sol-artifact-1",
  "contractName": "NFT",
  "sourceName": "contracts/NFT.sol",
  "abi": [
    {
      "inputs": [
        {
          "internalType": "address",
          "name": "marketplaceAddress",
          "type": "address"
        }
      ],
      "stateMutability": "nonpayable",
      "type": "constructor"
    },
    {
      "anonymous": false,
      "inputs": [
        {
          "indexed": true,
          "internalType": "address",
          "name": "owner",
          "type": "address"
        },
        {
          "indexed": true,
          "internalType": "address",
          "name": "approved",
          "type": "address"
        },
        {
          "indexed": true,
          "internalType": "uint256",
          "name": "tokenId",
          "type": "uint256"
        }
      ],
      "name": "Approval",
      "type": "event"
    },
    {
      "anonymous": false,
      "inputs": [
        {
          "indexed": true,
          "internalType": "address",
          "name": "owner",
          "type": "address"
        },
        {
          "indexed": true,
          "internalType": "address",
          "name": "operator",
          "type": "address"
        },
        {
          "indexed": false,
          "internalType": "bool",
          "name": "approved",
          "type": "bool"
        }
      ],
      "name": "ApprovalForAll",
      "type": "event"
    },
    {
      "anonymous": false,
      "inputs": [
        {
          "indexed": true,
          "internalType": "uint256",
          "name": "tokenId",
          "type": "uint256"
        },
        {
          "indexed": false,
          "internalType": "string",
          "name": "tokenURI",
          "type": "string"
        }
      ],
      "name": "CreatedNFT",
      "type": "event"
    },
    {
      "anonymous": false,
      "inputs": [
        {
          "indexed": true,
          "internalType": "address",
          "name": "from",
          "type": "address"
        },
        {
          "indexed": true,
          "internalType": "address",
          "name": "to",
          "type": "address"
        },
        {
          "indexed": true,
          "internalType": "uint256",
          "name": "tokenId",
          "type": "uint256"
        }
      ],
      "name": "Transfer",
      "type": "event"
    },
    {
      "inputs": [
        {
          "internalType": "address",
          "name": "to",
          "type": "address"
        },
        {
          "internalType": "uint256",
          "name": "tokenId",
          "type": "uint256"
        }
      ],
      "name": "approve",
      "outputs": [],
      "stateMutability": "nonpayable",
      "type": "function"
    },
    {
      "inputs": [
        {
          "internalType": "address",
          "name": "owner",
          "type": "address"
        }
      ],
      "name": "balanceOf",
      "outputs": [
        {
          "internalType": "uint256",
          "name": "",
          "type": "uint256"
        }
      ],
      "stateMutability": "view",
      "type": "function"
    },
    {
      "inputs": [
        {
          "internalType": "string",
          "name": "_d_params",
          "type": "string"
        },
        {
          "internalType": "string",
          "name": "_name",
          "type": "string"
        },
        {
          "internalType": "string",
          "name": "_description",
          "type": "string"
        },
        {
          "internalType": "string",
          "name": "color",
          "type": "string"
        }
      ],
      "name": "createSVGNFT",
      "outputs": [
        {
          "internalType": "uint256",
          "name": "",
          "type": "uint256"
        }
      ],
      "stateMutability": "nonpayable",
      "type": "function"
    },
    {
      "inputs": [
        {
          "internalType": "string",
          "name": "tokenURI",
          "type": "string"
        }
      ],
      "name": "createToken",
      "outputs": [
        {
          "internalType": "uint256",
          "name": "",
          "type": "uint256"
        }
      ],
      "stateMutability": "nonpayable",
      "type": "function"
    },
    {
      "inputs": [
        {
          "internalType": "string",
          "name": "_imageURI",
          "type": "string"
        },
        {
          "internalType": "uint256",
          "name": "tokenID",
          "type": "uint256"
        },
        {
          "internalType": "string",
          "name": "_name",
          "type": "string"
        },
        {
          "internalType": "string",
          "name": "_description",
          "type": "string"
        }
      ],
      "name": "formatTokenURI",
      "outputs": [
        {
          "internalType": "string",
          "name": "",
          "type": "string"
        }
      ],
      "stateMutability": "pure",
      "type": "function"
    },
    {
      "inputs": [
        {
          "internalType": "uint256",
          "name": "tokenId",
          "type": "uint256"
        },
        {
          "internalType": "string",
          "name": "_d_params",
          "type": "string"
        },
        {
          "internalType": "string",
          "name": "_name",
          "type": "string"
        },
        {
          "internalType": "string",
          "name": "_description",
          "type": "string"
        },
        {
          "internalType": "string",
          "name": "_color",
          "type": "string"
        }
      ],
      "name": "generateAyekiluaSVG",
      "outputs": [
        {
          "internalType": "string",
          "name": "_generatedSVG",
          "type": "string"
        }
      ],
      "stateMutability": "pure",
      "type": "function"
    },
    {
      "inputs": [
        {
          "internalType": "uint256",
          "name": "tokenId",
          "type": "uint256"
        }
      ],
      "name": "getApproved",
      "outputs": [
        {
          "internalType": "address",
          "name": "",
          "type": "address"
        }
      ],
      "stateMutability": "view",
      "type": "function"
    },
    {
      "inputs": [
        {
          "internalType": "address",
          "name": "owner",
          "type": "address"
        },
        {
          "internalType": "address",
          "name": "operator",
          "type": "address"
        }
      ],
      "name": "isApprovedForAll",
      "outputs": [
        {
          "internalType": "bool",
          "name": "",
          "type": "bool"
        }
      ],
      "stateMutability": "view",
      "type": "function"
    },
    {
      "inputs": [],
      "name": "name",
      "outputs": [
        {
          "internalType": "string",
          "name": "",
          "type": "string"
        }
      ],
      "stateMutability": "view",
      "type": "function"
    },
    {
      "inputs": [
        {
          "internalType": "uint256",
          "name": "tokenId",
          "type": "uint256"
        }
      ],
      "name": "ownerOf",
      "outputs": [
        {
          "internalType": "address",
          "name": "",
          "type": "address"
        }
      ],
      "stateMutability": "view",
      "type": "function"
    },
    {
      "inputs": [
        {
          "internalType": "address",
          "name": "from",
          "type": "address"
        },
        {
          "internalType": "address",
          "name": "to",
          "type": "address"
        },
        {
          "internalType": "uint256",
          "name": "tokenId",
          "type": "uint256"
        }
      ],
      "name": "safeTransferFrom",
      "outputs": [],
      "stateMutability": "nonpayable",
      "type": "function"
    },
    {
      "inputs": [
        {
          "internalType": "address",
          "name": "from",
          "type": "address"
        },
        {
          "internalType": "address",
          "name": "to",
          "type": "address"
        },
        {
          "internalType": "uint256",
          "name": "tokenId",
          "type": "uint256"
        },
        {
          "internalType": "bytes",
          "name": "_data",
          "type": "bytes"
        }
      ],
      "name": "safeTransferFrom",
      "outputs": [],
      "stateMutability": "nonpayable",
      "type": "function"
    },
    {
      "inputs": [
        {
          "internalType": "address",
          "name": "operator",
          "type": "address"
        },
        {
          "internalType": "bool",
          "name": "approved",
          "type": "bool"
        }
      ],
      "name": "setApprovalForAll",
      "outputs": [],
      "stateMutability": "nonpayable",
      "type": "function"
    },
    {
      "inputs": [
        {
          "internalType": "bytes4",
          "name": "interfaceId",
          "type": "bytes4"
        }
      ],
      "name": "supportsInterface",
      "outputs": [
        {
          "internalType": "bool",
          "name": "",
          "type": "bool"
        }
      ],
      "stateMutability": "view",
      "type": "function"
    },
    {
      "inputs": [
        {
          "internalType": "string",
          "name": "_svg",
          "type": "string"
        }
      ],
      "name": "svgToImageURI",
      "outputs": [
        {
          "internalType": "string",
          "name": "",
          "type": "string"
        }
      ],
      "stateMutability": "pure",
      "type": "function"
    },
    {
      "inputs": [],
      "name": "symbol",
      "outputs": [
        {
          "internalType": "string",
          "name": "",
          "type": "string"
        }
      ],
      "stateMutability": "view",
      "type": "function"
    },
    {
      "inputs": [],
      "name": "tokenCounter",
      "outputs": [
        {
          "internalType": "uint256",
          "name": "",
          "type": "uint256"
        }
      ],
      "stateMutability": "view",
      "type": "function"
    },
    {
      "inputs": [
        {
          "internalType": "uint256",
          "name": "tokenId",
          "type": "uint256"
        }
      ],
      "name": "tokenURI",
      "outputs": [
        {
          "internalType": "string",
          "name": "",
          "type": "string"
        }
      ],
      "stateMutability": "view",
      "type": "function"
    },
    {
      "inputs": [
        {
          "internalType": "address",
          "name": "from",
          "type": "address"
        },
        {
          "internalType": "address",
          "name": "to",
          "type": "address"
        },
        {
          "internalType": "uint256",
          "name": "tokenId",
          "type": "uint256"
        }
      ],
      "name": "transferFrom",
      "outputs": [],
      "stateMutability": "nonpayable",
      "type": "function"
    }
  ],
  "bytecode": "0x60806040523480156200001157600080fd5b5060405162004c5138038062004c518339818101604052810190620000379190620001ee565b6040518060400160405280600d81526020017f4179656b696c756173204e4654000000000000000000000000000000000000008152506040518060400160405280600981526020017f4159454b494c55415300000000000000000000000000000000000000000000008152508160009080519060200190620000bb92919062000127565b508060019080519060200190620000d492919062000127565b50505080600860006101000a81548173ffffffffffffffffffffffffffffffffffffffff021916908373ffffffffffffffffffffffffffffffffffffffff160217905550600060098190555050620002cd565b82805462000135906200024e565b90600052602060002090601f016020900481019282620001595760008555620001a5565b82601f106200017457805160ff1916838001178555620001a5565b82800160010185558215620001a5579182015b82811115620001a457825182559160200191906001019062000187565b5b509050620001b49190620001b8565b5090565b5b80821115620001d3576000816000905550600101620001b9565b5090565b600081519050620001e881620002b3565b92915050565b6000602082840312156200020157600080fd5b60006200021184828501620001d7565b91505092915050565b600062000227826200022e565b9050919050565b600073ffffffffffffffffffffffffffffffffffffffff82169050919050565b600060028204905060018216806200026757607f821691505b602082108114156200027e576200027d62000284565b5b50919050565b7f4e487b7100000000000000000000000000000000000000000000000000000000600052602260045260246000fd5b620002be816200021a565b8114620002ca57600080fd5b50565b61497480620002dd6000396000f3fe608060405234801561001057600080fd5b50600436106101215760003560e01c80636129bd77116100ad578063b88d4fde11610071578063b88d4fde14610352578063c87b56dd1461036e578063d082e3811461039e578063e985e9c5146103bc578063eff13f6a146103ec57610121565b80636129bd77146102885780636352211e146102b857806370a08231146102e857806395d89b4114610318578063a22cb4651461033657610121565b806323b872dd116100f457806323b872dd146101c057806330d871c6146101dc57806335b5b6f21461020c57806342842e0e1461023c57806345576f941461025857610121565b806301ffc9a71461012657806306fdde0314610156578063081812fc14610174578063095ea7b3146101a4575b600080fd5b610140600480360381019061013b91906122d8565b61041c565b60405161014d91906133a5565b60405180910390f35b61015e6104fe565b60405161016b91906133c0565b60405180910390f35b61018e600480360381019061018991906124d9565b610590565b60405161019b919061333e565b60405180910390f35b6101be60048036038101906101b9919061229c565b610615565b005b6101da60048036038101906101d59190612196565b61072d565b005b6101f660048036038101906101f1919061232a565b61078d565b60405161020391906133c0565b60405180910390f35b6102266004803603810190610221919061236b565b610826565b60405161023391906135e2565b60405180910390f35b61025660048036038101906102519190612196565b6108fe565b005b610272600480360381019061026d919061232a565b61091e565b60405161027f91906135e2565b60405180910390f35b6102a2600480360381019061029d9190612502565b610982565b6040516102af91906133c0565b60405180910390f35b6102d260048036038101906102cd91906124d9565b6109bf565b6040516102df919061333e565b60405180910390f35b61030260048036038101906102fd9190612131565b610a71565b60405161030f91906135e2565b60405180910390f35b610320610b29565b60405161032d91906133c0565b60405180910390f35b610350600480360381019061034b9190612260565b610bbb565b005b61036c600480360381019061036791906121e5565b610d3c565b005b610388600480360381019061038391906124d9565b610d9e565b60405161039591906133c0565b60405180910390f35b6103a6610ef0565b6040516103b391906135e2565b60405180910390f35b6103d660048036038101906103d1919061215a565b610ef6565b6040516103e391906133a5565b60405180910390f35b6104066004803603810190610401919061242e565b610f8a565b60405161041391906133c0565b60405180910390f35b60007f80ac58cd000000000000000000000000000000000000000000000000000000007bffffffffffffffffffffffffffffffffffffffffffffffffffffffff1916827bffffffffffffffffffffffffffffffffffffffffffffffffffffffff191614806104e757507f5b5e139f000000000000000000000000000000000000000000000000000000007bffffffffffffffffffffffffffffffffffffffffffffffffffffffff1916827bffffffffffffffffffffffffffffffffffffffffffffffffffffffff1916145b806104f757506104f682611028565b5b9050919050565b60606000805461050d906138d6565b80601f0160208091040260200160405190810160405280929190818152602001828054610539906138d6565b80156105865780601f1061055b57610100808354040283529160200191610586565b820191906000526020600020905b81548152906001019060200180831161056957829003601f168201915b5050505050905090565b600061059b82611092565b6105da576040517f08c379a00000000000000000000000000000000000000000000000000000000081526004016105d190613542565b60405180910390fd5b6004600083815260200190815260200160002060009054906101000a900473ffffffffffffffffffffffffffffffffffffffff169050919050565b6000610620826109bf565b90508073ffffffffffffffffffffffffffffffffffffffff168373ffffffffffffffffffffffffffffffffffffffff161415610691576040517f08c379a0000000000000000000000000000000000000000000000000000000008152600401610688906135a2565b60405180910390fd5b8073ffffffffffffffffffffffffffffffffffffffff166106b06110fe565b73ffffffffffffffffffffffffffffffffffffffff1614806106df57506106de816106d96110fe565b610ef6565b5b61071e576040517f08c379a000000000000000000000000000000000000000000000000000000000815260040161071590613482565b60405180910390fd5b6107288383611106565b505050565b61073e6107386110fe565b826111bf565b61077d576040517f08c379a0000000000000000000000000000000000000000000000000000000008152600401610774906135c2565b60405180910390fd5b61078883838361129d565b505050565b606060006040518060400160405280601a81526020017f646174613a696d6167652f7376672b786d6c3b6261736536342c000000000000815250905060006107f3846040516020016107df9190612faf565b6040516020818303038152906040526114f9565b90506000828260405160200161080a929190612fc6565b6040516020818303038152906040529050809350505050919050565b6000600160095461083791906136c7565b600981905550600061084e60095487878787610982565b905061085c336009546116a4565b60006108678261078d565b90506000610879826009548989610f8a565b905061088760095482611872565b6108b4600860009054906101000a900473ffffffffffffffffffffffffffffffffffffffff166001610bbb565b6009547fb5a8d8cf5d01b5006e471421ba7da032446e2a82412342ed548b7aeed0ea9b69826040516108e691906133c0565b60405180910390a26009549350505050949350505050565b61091983838360405180602001604052806000815250610d3c565b505050565b600061092a60076118e6565b600061093660076118fc565b905061094233826116a4565b61094c8184611872565b610979600860009054906101000a900473ffffffffffffffffffffffffffffffffffffffff166001610bbb565b80915050919050565b6060818361098f8861190a565b86886040516020016109a5959493929190612fea565b604051602081830303815290604052905095945050505050565b6000806002600084815260200190815260200160002060009054906101000a900473ffffffffffffffffffffffffffffffffffffffff169050600073ffffffffffffffffffffffffffffffffffffffff168173ffffffffffffffffffffffffffffffffffffffff161415610a68576040517f08c379a0000000000000000000000000000000000000000000000000000000008152600401610a5f906134c2565b60405180910390fd5b80915050919050565b60008073ffffffffffffffffffffffffffffffffffffffff168273ffffffffffffffffffffffffffffffffffffffff161415610ae2576040517f08c379a0000000000000000000000000000000000000000000000000000000008152600401610ad9906134a2565b60405180910390fd5b600360008373ffffffffffffffffffffffffffffffffffffffff1673ffffffffffffffffffffffffffffffffffffffff168152602001908152602001600020549050919050565b606060018054610b38906138d6565b80601f0160208091040260200160405190810160405280929190818152602001828054610b64906138d6565b8015610bb15780601f10610b8657610100808354040283529160200191610bb1565b820191906000526020600020905b815481529060010190602001808311610b9457829003601f168201915b5050505050905090565b610bc36110fe565b73ffffffffffffffffffffffffffffffffffffffff168273ffffffffffffffffffffffffffffffffffffffff161415610c31576040517f08c379a0000000000000000000000000000000000000000000000000000000008152600401610c2890613442565b60405180910390fd5b8060056000610c3e6110fe565b73ffffffffffffffffffffffffffffffffffffffff1673ffffffffffffffffffffffffffffffffffffffff16815260200190815260200160002060008473ffffffffffffffffffffffffffffffffffffffff1673ffffffffffffffffffffffffffffffffffffffff16815260200190815260200160002060006101000a81548160ff0219169083151502179055508173ffffffffffffffffffffffffffffffffffffffff16610ceb6110fe565b73ffffffffffffffffffffffffffffffffffffffff167f17307eab39ab6107e8899845ad3d59bd9653f200f220920489ca2b5937696c3183604051610d3091906133a5565b60405180910390a35050565b610d4d610d476110fe565b836111bf565b610d8c576040517f08c379a0000000000000000000000000000000000000000000000000000000008152600401610d83906135c2565b60405180910390fd5b610d9884848484611adf565b50505050565b6060610da982611092565b610de8576040517f08c379a0000000000000000000000000000000000000000000000000000000008152600401610ddf90613522565b60405180910390fd5b6000600660008481526020019081526020016000208054610e08906138d6565b80601f0160208091040260200160405190810160405280929190818152602001828054610e34906138d6565b8015610e815780601f10610e5657610100808354040283529160200191610e81565b820191906000526020600020905b815481529060010190602001808311610e6457829003601f168201915b505050505090506000610e92611b3b565b9050600081511415610ea8578192505050610eeb565b600082511115610edd578082604051602001610ec5929190612fc6565b60405160208183030381529060405292505050610eeb565b610ee684611b52565b925050505b919050565b60095481565b6000600560008473ffffffffffffffffffffffffffffffffffffffff1673ffffffffffffffffffffffffffffffffffffffff16815260200190815260200160002060008373ffffffffffffffffffffffffffffffffffffffff1673ffffffffffffffffffffffffffffffffffffffff16815260200190815260200160002060009054906101000a900460ff16905092915050565b606060006040518060400160405280601d81526020017f646174613a6170706c69636174696f6e2f6a736f6e3b6261736536342c000000815250905080610ffd610fd38761190a565b86868a604051602001610fe994939291906130f0565b6040516020818303038152906040526114f9565b60405160200161100e929190612fc6565b604051602081830303815290604052915050949350505050565b60007f01ffc9a7000000000000000000000000000000000000000000000000000000007bffffffffffffffffffffffffffffffffffffffffffffffffffffffff1916827bffffffffffffffffffffffffffffffffffffffffffffffffffffffff1916149050919050565b60008073ffffffffffffffffffffffffffffffffffffffff166002600084815260200190815260200160002060009054906101000a900473ffffffffffffffffffffffffffffffffffffffff1673ffffffffffffffffffffffffffffffffffffffff1614159050919050565b600033905090565b816004600083815260200190815260200160002060006101000a81548173ffffffffffffffffffffffffffffffffffffffff021916908373ffffffffffffffffffffffffffffffffffffffff160217905550808273ffffffffffffffffffffffffffffffffffffffff16611179836109bf565b73ffffffffffffffffffffffffffffffffffffffff167f8c5be1e5ebec7d5bd14f71427d1e84f3dd0314c0f7b2291e5b200ac8c7c3b92560405160405180910390a45050565b60006111ca82611092565b611209576040517f08c379a000000000000000000000000000000000000000000000000000000000815260040161120090613462565b60405180910390fd5b6000611214836109bf565b90508073ffffffffffffffffffffffffffffffffffffffff168473ffffffffffffffffffffffffffffffffffffffff16148061128357508373ffffffffffffffffffffffffffffffffffffffff1661126b84610590565b73ffffffffffffffffffffffffffffffffffffffff16145b8061129457506112938185610ef6565b5b91505092915050565b8273ffffffffffffffffffffffffffffffffffffffff166112bd826109bf565b73ffffffffffffffffffffffffffffffffffffffff1614611313576040517f08c379a000000000000000000000000000000000000000000000000000000000815260040161130a90613562565b60405180910390fd5b600073ffffffffffffffffffffffffffffffffffffffff168273ffffffffffffffffffffffffffffffffffffffff161415611383576040517f08c379a000000000000000000000000000000000000000000000000000000000815260040161137a90613422565b60405180910390fd5b61138e838383611bf9565b611399600082611106565b6001600360008573ffffffffffffffffffffffffffffffffffffffff1673ffffffffffffffffffffffffffffffffffffffff16815260200190815260200160002060008282546113e991906137df565b925050819055506001600360008473ffffffffffffffffffffffffffffffffffffffff1673ffffffffffffffffffffffffffffffffffffffff168152602001908152602001600020600082825461144091906136c7565b92505081905550816002600083815260200190815260200160002060006101000a81548173ffffffffffffffffffffffffffffffffffffffff021916908373ffffffffffffffffffffffffffffffffffffffff160217905550808273ffffffffffffffffffffffffffffffffffffffff168473ffffffffffffffffffffffffffffffffffffffff167fddf252ad1be2c89b69c2b068fc378daa952ba7f163c4a11628f55a4df523b3ef60405160405180910390a4505050565b606060008251141561151c5760405180602001604052806000815250905061169f565b60006040518060600160405280604081526020016148ff604091399050600060036002855161154b91906136c7565b6115559190613754565b60046115619190613785565b9050600060208261157291906136c7565b67ffffffffffffffff8111156115b1577f4e487b7100000000000000000000000000000000000000000000000000000000600052604160045260246000fd5b6040519080825280601f01601f1916602001820160405280156115e35781602001600182028036833780820191505090505b509050818152600183018586518101602084015b8183101561165e576003830192508251603f8160121c1685015160f81b8252600182019150603f81600c1c1685015160f81b8252600182019150603f8160061c1685015160f81b8252600182019150603f811685015160f81b8252600182019150506115f7565b600389510660018114611678576002811461168857611693565b613d3d60f01b6002830352611693565b603d60f81b60018303525b50505050508093505050505b919050565b600073ffffffffffffffffffffffffffffffffffffffff168273ffffffffffffffffffffffffffffffffffffffff161415611714576040517f08c379a000000000000000000000000000000000000000000000000000000000815260040161170b90613502565b60405180910390fd5b61171d81611092565b1561175d576040517f08c379a000000000000000000000000000000000000000000000000000000000815260040161175490613402565b60405180910390fd5b61176960008383611bf9565b6001600360008473ffffffffffffffffffffffffffffffffffffffff1673ffffffffffffffffffffffffffffffffffffffff16815260200190815260200160002060008282546117b991906136c7565b92505081905550816002600083815260200190815260200160002060006101000a81548173ffffffffffffffffffffffffffffffffffffffff021916908373ffffffffffffffffffffffffffffffffffffffff160217905550808273ffffffffffffffffffffffffffffffffffffffff16600073ffffffffffffffffffffffffffffffffffffffff167fddf252ad1be2c89b69c2b068fc378daa952ba7f163c4a11628f55a4df523b3ef60405160405180910390a45050565b61187b82611092565b6118ba576040517f08c379a00000000000000000000000000000000000000000000000000000000081526004016118b1906134e2565b60405180910390fd5b806006600084815260200190815260200160002090805190602001906118e1929190611f55565b505050565b6001816000016000828254019250508190555050565b600081600001549050919050565b60606000821415611952576040518060400160405280600181526020017f30000000000000000000000000000000000000000000000000000000000000008152509050611ada565b600082905060005b6000821461198457808061196d90613939565b915050600a8261197d9190613754565b915061195a565b60008167ffffffffffffffff8111156119c6577f4e487b7100000000000000000000000000000000000000000000000000000000600052604160045260246000fd5b6040519080825280601f01601f1916602001820160405280156119f85781602001600182028036833780820191505090505b50905060008290505b60008614611ad257600181611a1691906137df565b90506000600a8088611a289190613754565b611a329190613785565b87611a3d91906137df565b6030611a49919061371d565b905060008160f81b905080848481518110611a8d577f4e487b7100000000000000000000000000000000000000000000000000000000600052603260045260246000fd5b60200101907effffffffffffffffffffffffffffffffffffffffffffffffffffffffffffff1916908160001a905350600a88611ac99190613754565b97505050611a01565b819450505050505b919050565b611aea84848461129d565b611af684848484611bfe565b611b35576040517f08c379a0000000000000000000000000000000000000000000000000000000008152600401611b2c906133e2565b60405180910390fd5b50505050565b606060405180602001604052806000815250905090565b6060611b5d82611092565b611b9c576040517f08c379a0000000000000000000000000000000000000000000000000000000008152600401611b9390613582565b60405180910390fd5b6000611ba6611b3b565b90506000815111611bc65760405180602001604052806000815250611bf1565b80611bd084611d95565b604051602001611be1929190612fc6565b6040516020818303038152906040525b915050919050565b505050565b6000611c1f8473ffffffffffffffffffffffffffffffffffffffff16611f42565b15611d88578373ffffffffffffffffffffffffffffffffffffffff1663150b7a02611c486110fe565b8786866040518563ffffffff1660e01b8152600401611c6a9493929190613359565b602060405180830381600087803b158015611c8457600080fd5b505af1925050508015611cb557506040513d601f19601f82011682018060405250810190611cb29190612301565b60015b611d38573d8060008114611ce5576040519150601f19603f3d011682016040523d82523d6000602084013e611cea565b606091505b50600081511415611d30576040517f08c379a0000000000000000000000000000000000000000000000000000000008152600401611d27906133e2565b60405180910390fd5b805181602001fd5b63150b7a0260e01b7bffffffffffffffffffffffffffffffffffffffffffffffffffffffff1916817bffffffffffffffffffffffffffffffffffffffffffffffffffffffff191614915050611d8d565b600190505b949350505050565b60606000821415611ddd576040518060400160405280600181526020017f30000000000000000000000000000000000000000000000000000000000000008152509050611f3d565b600082905060005b60008214611e0f578080611df890613939565b915050600a82611e089190613754565b9150611de5565b60008167ffffffffffffffff811115611e51577f4e487b7100000000000000000000000000000000000000000000000000000000600052604160045260246000fd5b6040519080825280601f01601f191660200182016040528015611e835781602001600182028036833780820191505090505b5090505b60008514611f3657600182611e9c91906137df565b9150600a85611eab9190613982565b6030611eb791906136c7565b60f81b818381518110611ef3577f4e487b7100000000000000000000000000000000000000000000000000000000600052603260045260246000fd5b60200101907effffffffffffffffffffffffffffffffffffffffffffffffffffffffffffff1916908160001a905350600a85611f2f9190613754565b9450611e87565b8093505050505b919050565b600080823b905060008111915050919050565b828054611f61906138d6565b90600052602060002090601f016020900481019282611f835760008555611fca565b82601f10611f9c57805160ff1916838001178555611fca565b82800160010185558215611fca579182015b82811115611fc9578251825591602001919060010190611fae565b5b509050611fd79190611fdb565b5090565b5b80821115611ff4576000816000905550600101611fdc565b5090565b600061200b61200684613622565b6135fd565b90508281526020810184848401111561202357600080fd5b61202e848285613894565b509392505050565b600061204961204484613653565b6135fd565b90508281526020810184848401111561206157600080fd5b61206c848285613894565b509392505050565b600081359050612083816148a2565b92915050565b600081359050612098816148b9565b92915050565b6000813590506120ad816148d0565b92915050565b6000815190506120c2816148d0565b92915050565b600082601f8301126120d957600080fd5b81356120e9848260208601611ff8565b91505092915050565b600082601f83011261210357600080fd5b8135612113848260208601612036565b91505092915050565b60008135905061212b816148e7565b92915050565b60006020828403121561214357600080fd5b600061215184828501612074565b91505092915050565b6000806040838503121561216d57600080fd5b600061217b85828601612074565b925050602061218c85828601612074565b9150509250929050565b6000806000606084860312156121ab57600080fd5b60006121b986828701612074565b93505060206121ca86828701612074565b92505060406121db8682870161211c565b9150509250925092565b600080600080608085870312156121fb57600080fd5b600061220987828801612074565b945050602061221a87828801612074565b935050604061222b8782880161211c565b925050606085013567ffffffffffffffff81111561224857600080fd5b612254878288016120c8565b91505092959194509250565b6000806040838503121561227357600080fd5b600061228185828601612074565b925050602061229285828601612089565b9150509250929050565b600080604083850312156122af57600080fd5b60006122bd85828601612074565b92505060206122ce8582860161211c565b9150509250929050565b6000602082840312156122ea57600080fd5b60006122f88482850161209e565b91505092915050565b60006020828403121561231357600080fd5b6000612321848285016120b3565b91505092915050565b60006020828403121561233c57600080fd5b600082013567ffffffffffffffff81111561235657600080fd5b612362848285016120f2565b91505092915050565b6000806000806080858703121561238157600080fd5b600085013567ffffffffffffffff81111561239b57600080fd5b6123a7878288016120f2565b945050602085013567ffffffffffffffff8111156123c457600080fd5b6123d0878288016120f2565b935050604085013567ffffffffffffffff8111156123ed57600080fd5b6123f9878288016120f2565b925050606085013567ffffffffffffffff81111561241657600080fd5b612422878288016120f2565b91505092959194509250565b6000806000806080858703121561244457600080fd5b600085013567ffffffffffffffff81111561245e57600080fd5b61246a878288016120f2565b945050602061247b8782880161211c565b935050604085013567ffffffffffffffff81111561249857600080fd5b6124a4878288016120f2565b925050606085013567ffffffffffffffff8111156124c157600080fd5b6124cd878288016120f2565b91505092959194509250565b6000602082840312156124eb57600080fd5b60006124f98482850161211c565b91505092915050565b600080600080600060a0868803121561251a57600080fd5b60006125288882890161211c565b955050602086013567ffffffffffffffff81111561254557600080fd5b612551888289016120f2565b945050604086013567ffffffffffffffff81111561256e57600080fd5b61257a888289016120f2565b935050606086013567ffffffffffffffff81111561259757600080fd5b6125a3888289016120f2565b925050608086013567ffffffffffffffff8111156125c057600080fd5b6125cc888289016120f2565b9150509295509295909350565b6125e281613813565b82525050565b6125f181613825565b82525050565b600061260282613684565b61260c818561369a565b935061261c8185602086016138a3565b61262581613a6f565b840191505092915050565b600061263b8261368f565b61264581856136ab565b93506126558185602086016138a3565b61265e81613a6f565b840191505092915050565b60006126748261368f565b61267e81856136bc565b935061268e8185602086016138a3565b80840191505092915050565b60006126a7600d836136bc565b91506126b282613a80565b600d82019050919050565b60006126ca6008836136bc565b91506126d582613aa9565b600882019050919050565b60006126ed604d836136bc565b91506126f882613ad2565b604d82019050919050565b60006127106024836136bc565b915061271b82613b47565b602482019050919050565b6000612733601f836136bc565b915061273e82613b96565b601f82019050919050565b6000612756600c836136bc565b915061276182613bbf565b600c82019050919050565b6000612779600e836136bc565b915061278482613be8565b600e82019050919050565b600061279c6032836136ab565b91506127a782613c11565b604082019050919050565b60006127bf601c836136ab565b91506127ca82613c60565b602082019050919050565b60006127e2600c836136bc565b91506127ed82613c89565b600c82019050919050565b6000612805601b836136bc565b915061281082613cb2565b601b82019050919050565b60006128286016836136bc565b915061283382613cdb565b601682019050919050565b600061284b6002836136bc565b915061285682613d04565b600282019050919050565b600061286e6008836136bc565b915061287982613d2d565b600882019050919050565b6000612891601c836136bc565b915061289c82613d56565b601c82019050919050565b60006128b46024836136bc565b91506128bf82613d7f565b602482019050919050565b60006128d7600d836136bc565b91506128e282613dce565b600d82019050919050565b60006128fa6024836136ab565b915061290582613df7565b604082019050919050565b600061291d6019836136ab565b915061292882613e46565b602082019050919050565b60006129406015836136bc565b915061294b82613e6f565b601582019050919050565b60006129636018836136bc565b915061296e82613e98565b601882019050919050565b60006129866019836136bc565b915061299182613ec1565b601982019050919050565b60006129a9602c836136ab565b91506129b482613eea565b604082019050919050565b60006129cc6018836136bc565b91506129d782613f39565b601882019050919050565b60006129ef6038836136ab565b91506129fa82613f62565b604082019050919050565b6000612a126004836136bc565b9150612a1d82613fb1565b600482019050919050565b6000612a35602a836136ab565b9150612a4082613fda565b604082019050919050565b6000612a586029836136ab565b9150612a6382614029565b604082019050919050565b6000612a7b602e836136ab565b9150612a8682614078565b604082019050919050565b6000612a9e6006836136bc565b9150612aa9826140c7565b600682019050919050565b6000612ac16002836136bc565b9150612acc826140f0565b600282019050919050565b6000612ae46020836136ab565b9150612aef82614119565b602082019050919050565b6000612b076008836136bc565b9150612b1282614142565b600882019050919050565b6000612b2a6001836136bc565b9150612b358261416b565b600182019050919050565b6000612b4d6031836136ab565b9150612b5882614194565b604082019050919050565b6000612b706002836136bc565b9150612b7b826141e3565b600282019050919050565b6000612b936011836136bc565b9150612b9e8261420c565b601182019050919050565b6000612bb66004836136bc565b9150612bc182614235565b600482019050919050565b6000612bd9602c836136ab565b9150612be48261425e565b604082019050919050565b6000612bfc601e836136bc565b9150612c07826142ad565b601e82019050919050565b6000612c1f6003836136bc565b9150612c2a826142d6565b600382019050919050565b6000612c426029836136ab565b9150612c4d826142ff565b604082019050919050565b6000612c65601a836136bc565b9150612c708261434e565b601a82019050919050565b6000612c88602f836136ab565b9150612c9382614377565b604082019050919050565b6000612cab6001836136bc565b9150612cb6826143c6565b600182019050919050565b6000612cce600f836136bc565b9150612cd9826143ef565b600f82019050919050565b6000612cf16021836136ab565b9150612cfc82614418565b604082019050919050565b6000612d146010836136bc565b9150612d1f82614467565b601082019050919050565b6000612d376002836136bc565b9150612d4282614490565b600282019050919050565b6000612d5a609e836136bc565b9150612d65826144b9565b609e82019050919050565b6000612d7d6007836136bc565b9150612d888261457a565b600782019050919050565b6000612da06031836136ab565b9150612dab826145a3565b604082019050919050565b6000612dc36003836136bc565b9150612dce826145f2565b600382019050919050565b6000612de66010836136bc565b9150612df18261461b565b601082019050919050565b6000612e096015836136bc565b9150612e1482614644565b601582019050919050565b6000612e2c6003836136bc565b9150612e378261466d565b600382019050919050565b6000612e4f600a836136bc565b9150612e5a82614696565b600a82019050919050565b6000612e726002836136bc565b9150612e7d826146bf565b600282019050919050565b6000612e95601e836136bc565b9150612ea0826146e8565b601e82019050919050565b6000612eb86022836136bc565b9150612ec382614711565b602282019050919050565b6000612edb6034836136bc565b9150612ee682614760565b603482019050919050565b6000612efe6015836136bc565b9150612f09826147af565b601582019050919050565b6000612f216006836136bc565b9150612f2c826147d8565b600682019050919050565b6000612f446019836136bc565b9150612f4f82614801565b601982019050919050565b6000612f676012836136bc565b9150612f728261482a565b601282019050919050565b6000612f8a6026836136bc565b9150612f9582614853565b602682019050919050565b612fa98161387d565b82525050565b6000612fbb8284612669565b915081905092915050565b6000612fd28285612669565b9150612fde8284612669565b91508190509392505050565b6000612ff582612d4d565b915061300082612b86565b915061300b82612ef1565b915061301682612c58565b91506130228288612669565b915061302d8261283e565b915061303882612f5a565b915061304382612861565b915061304e82612d70565b915061305982612a91565b91506130658287612669565b915061307082612afa565b915061307b826128a7565b91506130878286612669565b915061309282612e65565b915061309e8285612669565b91506130a9826126bd565b91506130b482612ece565b91506130bf82612c12565b91506130cb8284612669565b91506130d682612a05565b91506130e182612f14565b91508190509695505050505050565b60006130fb82612dfc565b91506131078287612669565b915061311282612d2a565b915061311e8286612669565b915061312982612db6565b9150613134826126e0565b91506131408285612669565b915061314b82612ba9565b915061315682612cc1565b915061316182612c9e565b915061316c82612956565b915061317782612933565b915061318282612e1f565b915061318d82612c9e565b9150613198826129bf565b91506131a382612d07565b91506131ae82612e1f565b91506131b982612c9e565b91506131c482612979565b91506131cf8261281b565b91506131da82612e1f565b91506131e582612c9e565b91506131f082612f37565b91506131fb82612749565b915061320682612e1f565b915061321182612c9e565b915061321c826127f8565b91506132278261276c565b915061323282612e1f565b915061323d82612c9e565b915061324882612726565b915061325382612dd9565b915061325e82612e1f565b915061326982612c9e565b915061327482612eab565b915061327f82612e88565b915061328a8261269a565b915061329582612e1f565b91506132a082612c9e565b91506132ab82612f7d565b91506132b682612703565b91506132c1826128ca565b91506132cc82612e1f565b91506132d782612c9e565b91506132e282612884565b91506132ed82612bef565b91506132f8826127d5565b915061330382612b1d565b915061330e82612b63565b915061331982612e42565b91506133258284612669565b915061333082612ab4565b915081905095945050505050565b600060208201905061335360008301846125d9565b92915050565b600060808201905061336e60008301876125d9565b61337b60208301866125d9565b6133886040830185612fa0565b818103606083015261339a81846125f7565b905095945050505050565b60006020820190506133ba60008301846125e8565b92915050565b600060208201905081810360008301526133da8184612630565b905092915050565b600060208201905081810360008301526133fb8161278f565b9050919050565b6000602082019050818103600083015261341b816127b2565b9050919050565b6000602082019050818103600083015261343b816128ed565b9050919050565b6000602082019050818103600083015261345b81612910565b9050919050565b6000602082019050818103600083015261347b8161299c565b9050919050565b6000602082019050818103600083015261349b816129e2565b9050919050565b600060208201905081810360008301526134bb81612a28565b9050919050565b600060208201905081810360008301526134db81612a4b565b9050919050565b600060208201905081810360008301526134fb81612a6e565b9050919050565b6000602082019050818103600083015261351b81612ad7565b9050919050565b6000602082019050818103600083015261353b81612b40565b9050919050565b6000602082019050818103600083015261355b81612bcc565b9050919050565b6000602082019050818103600083015261357b81612c35565b9050919050565b6000602082019050818103600083015261359b81612c7b565b9050919050565b600060208201905081810360008301526135bb81612ce4565b9050919050565b600060208201905081810360008301526135db81612d93565b9050919050565b60006020820190506135f76000830184612fa0565b92915050565b6000613607613618565b90506136138282613908565b919050565b6000604051905090565b600067ffffffffffffffff82111561363d5761363c613a40565b5b61364682613a6f565b9050602081019050919050565b600067ffffffffffffffff82111561366e5761366d613a40565b5b61367782613a6f565b9050602081019050919050565b600081519050919050565b600081519050919050565b600082825260208201905092915050565b600082825260208201905092915050565b600081905092915050565b60006136d28261387d565b91506136dd8361387d565b9250827fffffffffffffffffffffffffffffffffffffffffffffffffffffffffffffffff03821115613712576137116139b3565b5b828201905092915050565b600061372882613887565b915061373383613887565b92508260ff03821115613749576137486139b3565b5b828201905092915050565b600061375f8261387d565b915061376a8361387d565b92508261377a576137796139e2565b5b828204905092915050565b60006137908261387d565b915061379b8361387d565b9250817fffffffffffffffffffffffffffffffffffffffffffffffffffffffffffffffff04831182151516156137d4576137d36139b3565b5b828202905092915050565b60006137ea8261387d565b91506137f58361387d565b925082821015613808576138076139b3565b5b828203905092915050565b600061381e8261385d565b9050919050565b60008115159050919050565b60007fffffffff0000000000000000000000000000000000000000000000000000000082169050919050565b600073ffffffffffffffffffffffffffffffffffffffff82169050919050565b6000819050919050565b600060ff82169050919050565b82818337600083830152505050565b60005b838110156138c15780820151818401526020810190506138a6565b838111156138d0576000848401525b50505050565b600060028204905060018216806138ee57607f821691505b6020821081141561390257613901613a11565b5b50919050565b61391182613a6f565b810181811067ffffffffffffffff821117156139305761392f613a40565b5b80604052505050565b60006139448261387d565b91507fffffffffffffffffffffffffffffffffffffffffffffffffffffffffffffffff821415613977576139766139b3565b5b600182019050919050565b600061398d8261387d565b91506139988361387d565b9250826139a8576139a76139e2565b5b828206905092915050565b7f4e487b7100000000000000000000000000000000000000000000000000000000600052601160045260246000fd5b7f4e487b7100000000000000000000000000000000000000000000000000000000600052601260045260246000fd5b7f4e487b7100000000000000000000000000000000000000000000000000000000600052602260045260246000fd5b7f4e487b7100000000000000000000000000000000000000000000000000000000600052604160045260246000fd5b6000601f19601f8301169050919050565b7f20202276616c7565223a20343000000000000000000000000000000000000000600082015250565b7f3c2f7469746c653e000000000000000000000000000000000000000000000000600082015250565b7f226465736372697074696f6e223a202254686973206973206120756e6971756560008201527f20626c6f636b636861696e2067656e657261746564204e46542e204179656b6960208201527f6c756173205365726965732e2000000000000000000000000000000000000000604082015250565b7f20202274726169745f74797065223a20225374616d696e6120496e637265617360008201527f65222c2000000000000000000000000000000000000000000000000000000000602082015250565b7f20202274726169745f74797065223a2022506572736f6e616c697479222c2000600082015250565b7f20202276616c7565223a20350000000000000000000000000000000000000000600082015250565b7f20202276616c7565223a20312e34000000000000000000000000000000000000600082015250565b7f4552433732313a207472616e7366657220746f206e6f6e20455243373231526560008201527f63656976657220696d706c656d656e7465720000000000000000000000000000602082015250565b7f4552433732313a20746f6b656e20616c7265616479206d696e74656400000000600082015250565b7f20202276616c7565223a20320000000000000000000000000000000000000000600082015250565b7f20202274726169745f74797065223a20225374616d696e61222c200000000000600082015250565b7f20202276616c7565223a20225375727072697365642200000000000000000000600082015250565b7f3b7d000000000000000000000000000000000000000000000000000000000000600082015250565b7f3c2f7374796c653e000000000000000000000000000000000000000000000000600082015250565b7f202022646973706c61795f74797065223a20226e756d626572222c2000000000600082015250565b7f3c7469746c652069643d226179656b696c75615469746c65223e4179656b696c60008201527f7561202300000000000000000000000000000000000000000000000000000000602082015250565b7f20202276616c7565223a20313000000000000000000000000000000000000000600082015250565b7f4552433732313a207472616e7366657220746f20746865207a65726f2061646460008201527f7265737300000000000000000000000000000000000000000000000000000000602082015250565b7f4552433732313a20617070726f766520746f2063616c6c657200000000000000600082015250565b7f20202276616c7565223a20225374617266697368220000000000000000000000600082015250565b7f20202274726169745f74797065223a202242617365222c200000000000000000600082015250565b7f20202274726169745f74797065223a20224d6f757468222c2000000000000000600082015250565b7f4552433732313a206f70657261746f7220717565727920666f72206e6f6e657860008201527f697374656e7420746f6b656e0000000000000000000000000000000000000000602082015250565b7f20202274726169745f74797065223a202245796573222c200000000000000000600082015250565b7f4552433732313a20617070726f76652063616c6c6572206973206e6f74206f7760008201527f6e6572206e6f7220617070726f76656420666f7220616c6c0000000000000000602082015250565b7f22202f3e00000000000000000000000000000000000000000000000000000000600082015250565b7f4552433732313a2062616c616e636520717565727920666f7220746865207a6560008201527f726f206164647265737300000000000000000000000000000000000000000000602082015250565b7f4552433732313a206f776e657220717565727920666f72206e6f6e657869737460008201527f656e7420746f6b656e0000000000000000000000000000000000000000000000602082015250565b7f45524337323155524953746f726167653a2055524920736574206f66206e6f6e60008201527f6578697374656e7420746f6b656e000000000000000000000000000000000000602082015250565b7f3c646573633e0000000000000000000000000000000000000000000000000000600082015250565b7f227d000000000000000000000000000000000000000000000000000000000000600082015250565b7f4552433732313a206d696e7420746f20746865207a65726f2061646472657373600082015250565b7f203c2f646573633e000000000000000000000000000000000000000000000000600082015250565b7f7d00000000000000000000000000000000000000000000000000000000000000600082015250565b7f45524337323155524953746f726167653a2055524920717565727920666f722060008201527f6e6f6e6578697374656e7420746f6b656e000000000000000000000000000000602082015250565b7f5d2c000000000000000000000000000000000000000000000000000000000000600082015250565b7f3c646566732069643d226465667334223e000000000000000000000000000000600082015250565b7f20222c2000000000000000000000000000000000000000000000000000000000600082015250565b7f4552433732313a20617070726f76656420717565727920666f72206e6f6e657860008201527f697374656e7420746f6b656e0000000000000000000000000000000000000000602082015250565b7f20202274726169745f74797065223a202247656e65726174696f6e222c200000600082015250565b7f643d220000000000000000000000000000000000000000000000000000000000600082015250565b7f4552433732313a207472616e73666572206f6620746f6b656e2074686174206960008201527f73206e6f74206f776e0000000000000000000000000000000000000000000000602082015250565b7f2e6179656b696c7561535647436f6c6f72207b66696c6c3a2023000000000000600082015250565b7f4552433732314d657461646174613a2055524920717565727920666f72206e6f60008201527f6e6578697374656e7420746f6b656e0000000000000000000000000000000000602082015250565b7f7b00000000000000000000000000000000000000000000000000000000000000600082015250565b7f2261747472696275746573223a205b0000000000000000000000000000000000600082015250565b7f4552433732313a20617070726f76616c20746f2063757272656e74206f776e6560008201527f7200000000000000000000000000000000000000000000000000000000000000602082015250565b7f20202276616c7565223a20224269672200000000000000000000000000000000600082015250565b7f2e20000000000000000000000000000000000000000000000000000000000000600082015250565b7f3c73766720786d6c6e733a7376673d22687474703a2f2f7777772e77332e6f7260008201527f672f323030302f7376672220786d6c6e733d22687474703a2f2f7777772e773360208201527f2e6f72672f323030302f73766722206865696768743d2233353022207769647460408201527f683d22333530222076657273696f6e3d22312e31222076696577426f783d223060608201527f20302031373520333530222069643d226179656b696c75615f737667223e0000608082015250565b7f3c2f646566733e00000000000000000000000000000000000000000000000000600082015250565b7f4552433732313a207472616e736665722063616c6c6572206973206e6f74206f60008201527f776e6572206e6f7220617070726f766564000000000000000000000000000000602082015250565b7f222c200000000000000000000000000000000000000000000000000000000000600082015250565b7f20202276616c7565223a20225361642200000000000000000000000000000000600082015250565b7f7b226e616d65223a20224179656b696c75617320230000000000000000000000600082015250565b7f7d2c200000000000000000000000000000000000000000000000000000000000600082015250565b7f22696d616765223a202200000000000000000000000000000000000000000000600082015250565b7f3a20000000000000000000000000000000000000000000000000000000000000600082015250565b7f20202274726169745f74797065223a20224171756120506f776572222c200000600082015250565b7f202022646973706c61795f74797065223a2022626f6f73745f6e756d6265722260008201527f2c20000000000000000000000000000000000000000000000000000000000000602082015250565b7f3c706174682069643d226179656b696c7561535647506174682220636c61737360008201527f3d226179656b696c7561535647436f6c6f722220000000000000000000000000602082015250565b7f3c7374796c652069643d227374796c65535647223e0000000000000000000000600082015250565b7f3c2f7376673e0000000000000000000000000000000000000000000000000000600082015250565b7f20202274726169745f74797065223a20224c6576656c222c2000000000000000600082015250565b7f626f6479207b66696c6c3a20236666663b7d0000000000000000000000000000600082015250565b7f202022646973706c61795f74797065223a2022626f6f73745f70657263656e7460008201527f616765222c200000000000000000000000000000000000000000000000000000602082015250565b6148ab81613813565b81146148b657600080fd5b50565b6148c281613825565b81146148cd57600080fd5b50565b6148d981613831565b81146148e457600080fd5b50565b6148f08161387d565b81146148fb57600080fd5b5056fe4142434445464748494a4b4c4d4e4f505152535455565758595a6162636465666768696a6b6c6d6e6f707172737475767778797a303132333435363738392b2fa2646970667358221220db93aac29cc1ecb27d190c2a1c54d4befe56d5c3f971ce57c72575a470b9840f64736f6c63430008040033",
  "linkReferences": {},
  "deployedLinkReferences": {}
}