{
  "_format": "hh-sol-artifact-1",
  "contractName": "NFT",
  "sourceName": "contracts/NFT.sol",
  "abi": [
    {
      "inputs": [
        {
          "internalType": "address",
          "name": "marketplaceAddress",
          "type": "address"
        }
      ],
      "stateMutability": "nonpayable",
      "type": "constructor"
    },
    {
      "anonymous": false,
      "inputs": [
        {
          "indexed": true,
          "internalType": "address",
          "name": "owner",
          "type": "address"
        },
        {
          "indexed": true,
          "internalType": "address",
          "name": "approved",
          "type": "address"
        },
        {
          "indexed": true,
          "internalType": "uint256",
          "name": "tokenId",
          "type": "uint256"
        }
      ],
      "name": "Approval",
      "type": "event"
    },
    {
      "anonymous": false,
      "inputs": [
        {
          "indexed": true,
          "internalType": "address",
          "name": "owner",
          "type": "address"
        },
        {
          "indexed": true,
          "internalType": "address",
          "name": "operator",
          "type": "address"
        },
        {
          "indexed": false,
          "internalType": "bool",
          "name": "approved",
          "type": "bool"
        }
      ],
      "name": "ApprovalForAll",
      "type": "event"
    },
    {
      "anonymous": false,
      "inputs": [
        {
          "indexed": true,
          "internalType": "uint256",
          "name": "tokenId",
          "type": "uint256"
        },
        {
          "indexed": false,
          "internalType": "string",
          "name": "tokenURI",
          "type": "string"
        }
      ],
      "name": "CreatedNFT",
      "type": "event"
    },
    {
      "anonymous": false,
      "inputs": [
        {
          "indexed": true,
          "internalType": "address",
          "name": "from",
          "type": "address"
        },
        {
          "indexed": true,
          "internalType": "address",
          "name": "to",
          "type": "address"
        },
        {
          "indexed": true,
          "internalType": "uint256",
          "name": "tokenId",
          "type": "uint256"
        }
      ],
      "name": "Transfer",
      "type": "event"
    },
    {
      "inputs": [
        {
          "internalType": "address",
          "name": "to",
          "type": "address"
        },
        {
          "internalType": "uint256",
          "name": "tokenId",
          "type": "uint256"
        }
      ],
      "name": "approve",
      "outputs": [],
      "stateMutability": "nonpayable",
      "type": "function"
    },
    {
      "inputs": [
        {
          "internalType": "address",
          "name": "owner",
          "type": "address"
        }
      ],
      "name": "balanceOf",
      "outputs": [
        {
          "internalType": "uint256",
          "name": "",
          "type": "uint256"
        }
      ],
      "stateMutability": "view",
      "type": "function"
    },
    {
      "inputs": [
        {
          "internalType": "string",
          "name": "_d_params",
          "type": "string"
        }
      ],
      "name": "createSVGNFT",
      "outputs": [
        {
          "internalType": "uint256",
          "name": "",
          "type": "uint256"
        }
      ],
      "stateMutability": "nonpayable",
      "type": "function"
    },
    {
      "inputs": [
        {
          "internalType": "string",
          "name": "tokenURI",
          "type": "string"
        }
      ],
      "name": "createToken",
      "outputs": [
        {
          "internalType": "uint256",
          "name": "",
          "type": "uint256"
        }
      ],
      "stateMutability": "nonpayable",
      "type": "function"
    },
    {
      "inputs": [
        {
          "internalType": "string",
          "name": "_imageURI",
          "type": "string"
        }
      ],
      "name": "formatTokenURI",
      "outputs": [
        {
          "internalType": "string",
          "name": "",
          "type": "string"
        }
      ],
      "stateMutability": "pure",
      "type": "function"
    },
    {
      "inputs": [
        {
          "internalType": "uint256",
          "name": "tokenId",
          "type": "uint256"
        },
        {
          "internalType": "string",
          "name": "_d_params",
          "type": "string"
        }
      ],
      "name": "generateAyekiluaSVG",
      "outputs": [
        {
          "internalType": "string",
          "name": "_generatedSVG",
          "type": "string"
        }
      ],
      "stateMutability": "pure",
      "type": "function"
    },
    {
      "inputs": [
        {
          "internalType": "uint256",
          "name": "tokenId",
          "type": "uint256"
        }
      ],
      "name": "getApproved",
      "outputs": [
        {
          "internalType": "address",
          "name": "",
          "type": "address"
        }
      ],
      "stateMutability": "view",
      "type": "function"
    },
    {
      "inputs": [
        {
          "internalType": "address",
          "name": "owner",
          "type": "address"
        },
        {
          "internalType": "address",
          "name": "operator",
          "type": "address"
        }
      ],
      "name": "isApprovedForAll",
      "outputs": [
        {
          "internalType": "bool",
          "name": "",
          "type": "bool"
        }
      ],
      "stateMutability": "view",
      "type": "function"
    },
    {
      "inputs": [],
      "name": "name",
      "outputs": [
        {
          "internalType": "string",
          "name": "",
          "type": "string"
        }
      ],
      "stateMutability": "view",
      "type": "function"
    },
    {
      "inputs": [
        {
          "internalType": "uint256",
          "name": "tokenId",
          "type": "uint256"
        }
      ],
      "name": "ownerOf",
      "outputs": [
        {
          "internalType": "address",
          "name": "",
          "type": "address"
        }
      ],
      "stateMutability": "view",
      "type": "function"
    },
    {
      "inputs": [
        {
          "internalType": "address",
          "name": "from",
          "type": "address"
        },
        {
          "internalType": "address",
          "name": "to",
          "type": "address"
        },
        {
          "internalType": "uint256",
          "name": "tokenId",
          "type": "uint256"
        }
      ],
      "name": "safeTransferFrom",
      "outputs": [],
      "stateMutability": "nonpayable",
      "type": "function"
    },
    {
      "inputs": [
        {
          "internalType": "address",
          "name": "from",
          "type": "address"
        },
        {
          "internalType": "address",
          "name": "to",
          "type": "address"
        },
        {
          "internalType": "uint256",
          "name": "tokenId",
          "type": "uint256"
        },
        {
          "internalType": "bytes",
          "name": "_data",
          "type": "bytes"
        }
      ],
      "name": "safeTransferFrom",
      "outputs": [],
      "stateMutability": "nonpayable",
      "type": "function"
    },
    {
      "inputs": [
        {
          "internalType": "address",
          "name": "operator",
          "type": "address"
        },
        {
          "internalType": "bool",
          "name": "approved",
          "type": "bool"
        }
      ],
      "name": "setApprovalForAll",
      "outputs": [],
      "stateMutability": "nonpayable",
      "type": "function"
    },
    {
      "inputs": [
        {
          "internalType": "bytes4",
          "name": "interfaceId",
          "type": "bytes4"
        }
      ],
      "name": "supportsInterface",
      "outputs": [
        {
          "internalType": "bool",
          "name": "",
          "type": "bool"
        }
      ],
      "stateMutability": "view",
      "type": "function"
    },
    {
      "inputs": [
        {
          "internalType": "string",
          "name": "_svg",
          "type": "string"
        }
      ],
      "name": "svgToImageURI",
      "outputs": [
        {
          "internalType": "string",
          "name": "",
          "type": "string"
        }
      ],
      "stateMutability": "pure",
      "type": "function"
    },
    {
      "inputs": [],
      "name": "symbol",
      "outputs": [
        {
          "internalType": "string",
          "name": "",
          "type": "string"
        }
      ],
      "stateMutability": "view",
      "type": "function"
    },
    {
      "inputs": [],
      "name": "tokenCounter",
      "outputs": [
        {
          "internalType": "uint256",
          "name": "",
          "type": "uint256"
        }
      ],
      "stateMutability": "view",
      "type": "function"
    },
    {
      "inputs": [
        {
          "internalType": "uint256",
          "name": "tokenId",
          "type": "uint256"
        }
      ],
      "name": "tokenURI",
      "outputs": [
        {
          "internalType": "string",
          "name": "",
          "type": "string"
        }
      ],
      "stateMutability": "view",
      "type": "function"
    },
    {
      "inputs": [
        {
          "internalType": "address",
          "name": "from",
          "type": "address"
        },
        {
          "internalType": "address",
          "name": "to",
          "type": "address"
        },
        {
          "internalType": "uint256",
          "name": "tokenId",
          "type": "uint256"
        }
      ],
      "name": "transferFrom",
      "outputs": [],
      "stateMutability": "nonpayable",
      "type": "function"
    }
  ],
  "bytecode": "0x60806040523480156200001157600080fd5b5060405162004c3938038062004c398339818101604052810190620000379190620001ee565b6040518060400160405280600d81526020017f4179656b696c756173204e4654000000000000000000000000000000000000008152506040518060400160405280600981526020017f4159454b494c55415300000000000000000000000000000000000000000000008152508160009080519060200190620000bb92919062000127565b508060019080519060200190620000d492919062000127565b50505080600860006101000a81548173ffffffffffffffffffffffffffffffffffffffff021916908373ffffffffffffffffffffffffffffffffffffffff160217905550600060098190555050620002cd565b82805462000135906200024e565b90600052602060002090601f016020900481019282620001595760008555620001a5565b82601f106200017457805160ff1916838001178555620001a5565b82800160010185558215620001a5579182015b82811115620001a457825182559160200191906001019062000187565b5b509050620001b49190620001b8565b5090565b5b80821115620001d3576000816000905550600101620001b9565b5090565b600081519050620001e881620002b3565b92915050565b6000602082840312156200020157600080fd5b60006200021184828501620001d7565b91505092915050565b600062000227826200022e565b9050919050565b600073ffffffffffffffffffffffffffffffffffffffff82169050919050565b600060028204905060018216806200026757607f821691505b602082108114156200027e576200027d62000284565b5b50919050565b7f4e487b7100000000000000000000000000000000000000000000000000000000600052602260045260246000fd5b620002be816200021a565b8114620002ca57600080fd5b50565b61495c80620002dd6000396000f3fe608060405234801561001057600080fd5b50600436106101215760003560e01c80636352211e116100ad578063a22cb46511610071578063a22cb46514610366578063b88d4fde14610382578063c87b56dd1461039e578063d082e381146103ce578063e985e9c5146103ec57610121565b80636352211e1461028857806370a08231146102b857806371aee193146102e857806395d89b4114610318578063980e331d1461033657610121565b806323b872dd116100f457806323b872dd146101c057806330d871c6146101dc57806342842e0e1461020c57806345576f941461022857806352fb49c91461025857610121565b806301ffc9a71461012657806306fdde0314610156578063081812fc14610174578063095ea7b3146101a4575b600080fd5b610140600480360381019061013b91906122b3565b61041c565b60405161014d9190612ab0565b60405180910390f35b61015e6104fe565b60405161016b9190612acb565b60405180910390f35b61018e60048036038101906101899190612346565b610590565b60405161019b9190612a49565b60405180910390f35b6101be60048036038101906101b99190612277565b610615565b005b6101da60048036038101906101d59190612171565b61072d565b005b6101f660048036038101906101f19190612305565b61078d565b6040516102039190612acb565b60405180910390f35b61022660048036038101906102219190612171565b610826565b005b610242600480360381019061023d9190612305565b610846565b60405161024f9190612ced565b60405180910390f35b610272600480360381019061026d919061236f565b6108aa565b60405161027f9190612acb565b60405180910390f35b6102a2600480360381019061029d9190612346565b6108de565b6040516102af9190612a49565b60405180910390f35b6102d260048036038101906102cd919061210c565b610990565b6040516102df9190612ced565b60405180910390f35b61030260048036038101906102fd9190612305565b610a48565b60405161030f9190612acb565b60405180910390f35b610320610ad5565b60405161032d9190612acb565b60405180910390f35b610350600480360381019061034b9190612305565b610b67565b60405161035d9190612ced565b60405180910390f35b610380600480360381019061037b919061223b565b610c34565b005b61039c600480360381019061039791906121c0565b610db5565b005b6103b860048036038101906103b39190612346565b610e17565b6040516103c59190612acb565b60405180910390f35b6103d6610f69565b6040516103e39190612ced565b60405180910390f35b61040660048036038101906104019190612135565b610f6f565b6040516104139190612ab0565b60405180910390f35b60007f80ac58cd000000000000000000000000000000000000000000000000000000007bffffffffffffffffffffffffffffffffffffffffffffffffffffffff1916827bffffffffffffffffffffffffffffffffffffffffffffffffffffffff191614806104e757507f5b5e139f000000000000000000000000000000000000000000000000000000007bffffffffffffffffffffffffffffffffffffffffffffffffffffffff1916827bffffffffffffffffffffffffffffffffffffffffffffffffffffffff1916145b806104f757506104f682611003565b5b9050919050565b60606000805461050d90612fe1565b80601f016020809104026020016040519081016040528092919081815260200182805461053990612fe1565b80156105865780601f1061055b57610100808354040283529160200191610586565b820191906000526020600020905b81548152906001019060200180831161056957829003601f168201915b5050505050905090565b600061059b8261106d565b6105da576040517f08c379a00000000000000000000000000000000000000000000000000000000081526004016105d190612c4d565b60405180910390fd5b6004600083815260200190815260200160002060009054906101000a900473ffffffffffffffffffffffffffffffffffffffff169050919050565b6000610620826108de565b90508073ffffffffffffffffffffffffffffffffffffffff168373ffffffffffffffffffffffffffffffffffffffff161415610691576040517f08c379a000000000000000000000000000000000000000000000000000000000815260040161068890612cad565b60405180910390fd5b8073ffffffffffffffffffffffffffffffffffffffff166106b06110d9565b73ffffffffffffffffffffffffffffffffffffffff1614806106df57506106de816106d96110d9565b610f6f565b5b61071e576040517f08c379a000000000000000000000000000000000000000000000000000000000815260040161071590612b8d565b60405180910390fd5b61072883836110e1565b505050565b61073e6107386110d9565b8261119a565b61077d576040517f08c379a000000000000000000000000000000000000000000000000000000000815260040161077490612ccd565b60405180910390fd5b610788838383611278565b505050565b606060006040518060400160405280601a81526020017f646174613a696d6167652f7376672b786d6c3b6261736536342c000000000000815250905060006107f3846040516020016107df9190612918565b6040516020818303038152906040526114d4565b90506000828260405160200161080a92919061292f565b6040516020818303038152906040529050809350505050919050565b61084183838360405180602001604052806000815250610db5565b505050565b6000610852600761167f565b600061085e6007611695565b905061086a33826116a3565b6108748184611871565b6108a1600860009054906101000a900473ffffffffffffffffffffffffffffffffffffffff166001610c34565b80915050919050565b60606108b5836118e5565b826040516020016108c7929190612953565b604051602081830303815290604052905092915050565b6000806002600084815260200190815260200160002060009054906101000a900473ffffffffffffffffffffffffffffffffffffffff169050600073ffffffffffffffffffffffffffffffffffffffff168173ffffffffffffffffffffffffffffffffffffffff161415610987576040517f08c379a000000000000000000000000000000000000000000000000000000000815260040161097e90612bcd565b60405180910390fd5b80915050919050565b60008073ffffffffffffffffffffffffffffffffffffffff168273ffffffffffffffffffffffffffffffffffffffff161415610a01576040517f08c379a00000000000000000000000000000000000000000000000000000000081526004016109f890612bad565b60405180910390fd5b600360008373ffffffffffffffffffffffffffffffffffffffff1673ffffffffffffffffffffffffffffffffffffffff168152602001908152602001600020549050919050565b606060006040518060400160405280601d81526020017f646174613a6170706c69636174696f6e2f6a736f6e3b6261736536342c000000815250905080610aad84604051602001610a9991906129fb565b6040516020818303038152906040526114d4565b604051602001610abe92919061292f565b604051602081830303815290604052915050919050565b606060018054610ae490612fe1565b80601f0160208091040260200160405190810160405280929190818152602001828054610b1090612fe1565b8015610b5d5780601f10610b3257610100808354040283529160200191610b5d565b820191906000526020600020905b815481529060010190602001808311610b4057829003601f168201915b5050505050905090565b60006001600954610b789190612dd2565b6009819055506000610b8c600954846108aa565b9050610b9a336009546116a3565b6000610ba58261078d565b90506000610bb282610a48565b9050610bc060095482611871565b610bed600860009054906101000a900473ffffffffffffffffffffffffffffffffffffffff166001610c34565b6009547fb5a8d8cf5d01b5006e471421ba7da032446e2a82412342ed548b7aeed0ea9b6982604051610c1f9190612acb565b60405180910390a26009549350505050919050565b610c3c6110d9565b73ffffffffffffffffffffffffffffffffffffffff168273ffffffffffffffffffffffffffffffffffffffff161415610caa576040517f08c379a0000000000000000000000000000000000000000000000000000000008152600401610ca190612b4d565b60405180910390fd5b8060056000610cb76110d9565b73ffffffffffffffffffffffffffffffffffffffff1673ffffffffffffffffffffffffffffffffffffffff16815260200190815260200160002060008473ffffffffffffffffffffffffffffffffffffffff1673ffffffffffffffffffffffffffffffffffffffff16815260200190815260200160002060006101000a81548160ff0219169083151502179055508173ffffffffffffffffffffffffffffffffffffffff16610d646110d9565b73ffffffffffffffffffffffffffffffffffffffff167f17307eab39ab6107e8899845ad3d59bd9653f200f220920489ca2b5937696c3183604051610da99190612ab0565b60405180910390a35050565b610dc6610dc06110d9565b8361119a565b610e05576040517f08c379a0000000000000000000000000000000000000000000000000000000008152600401610dfc90612ccd565b60405180910390fd5b610e1184848484611aba565b50505050565b6060610e228261106d565b610e61576040517f08c379a0000000000000000000000000000000000000000000000000000000008152600401610e5890612c2d565b60405180910390fd5b6000600660008481526020019081526020016000208054610e8190612fe1565b80601f0160208091040260200160405190810160405280929190818152602001828054610ead90612fe1565b8015610efa5780601f10610ecf57610100808354040283529160200191610efa565b820191906000526020600020905b815481529060010190602001808311610edd57829003601f168201915b505050505090506000610f0b611b16565b9050600081511415610f21578192505050610f64565b600082511115610f56578082604051602001610f3e92919061292f565b60405160208183030381529060405292505050610f64565b610f5f84611b2d565b925050505b919050565b60095481565b6000600560008473ffffffffffffffffffffffffffffffffffffffff1673ffffffffffffffffffffffffffffffffffffffff16815260200190815260200160002060008373ffffffffffffffffffffffffffffffffffffffff1673ffffffffffffffffffffffffffffffffffffffff16815260200190815260200160002060009054906101000a900460ff16905092915050565b60007f01ffc9a7000000000000000000000000000000000000000000000000000000007bffffffffffffffffffffffffffffffffffffffffffffffffffffffff1916827bffffffffffffffffffffffffffffffffffffffffffffffffffffffff1916149050919050565b60008073ffffffffffffffffffffffffffffffffffffffff166002600084815260200190815260200160002060009054906101000a900473ffffffffffffffffffffffffffffffffffffffff1673ffffffffffffffffffffffffffffffffffffffff1614159050919050565b600033905090565b816004600083815260200190815260200160002060006101000a81548173ffffffffffffffffffffffffffffffffffffffff021916908373ffffffffffffffffffffffffffffffffffffffff160217905550808273ffffffffffffffffffffffffffffffffffffffff16611154836108de565b73ffffffffffffffffffffffffffffffffffffffff167f8c5be1e5ebec7d5bd14f71427d1e84f3dd0314c0f7b2291e5b200ac8c7c3b92560405160405180910390a45050565b60006111a58261106d565b6111e4576040517f08c379a00000000000000000000000000000000000000000000000000000000081526004016111db90612b6d565b60405180910390fd5b60006111ef836108de565b90508073ffffffffffffffffffffffffffffffffffffffff168473ffffffffffffffffffffffffffffffffffffffff16148061125e57508373ffffffffffffffffffffffffffffffffffffffff1661124684610590565b73ffffffffffffffffffffffffffffffffffffffff16145b8061126f575061126e8185610f6f565b5b91505092915050565b8273ffffffffffffffffffffffffffffffffffffffff16611298826108de565b73ffffffffffffffffffffffffffffffffffffffff16146112ee576040517f08c379a00000000000000000000000000000000000000000000000000000000081526004016112e590612c6d565b60405180910390fd5b600073ffffffffffffffffffffffffffffffffffffffff168273ffffffffffffffffffffffffffffffffffffffff16141561135e576040517f08c379a000000000000000000000000000000000000000000000000000000000815260040161135590612b2d565b60405180910390fd5b611369838383611bd4565b6113746000826110e1565b6001600360008573ffffffffffffffffffffffffffffffffffffffff1673ffffffffffffffffffffffffffffffffffffffff16815260200190815260200160002060008282546113c49190612eea565b925050819055506001600360008473ffffffffffffffffffffffffffffffffffffffff1673ffffffffffffffffffffffffffffffffffffffff168152602001908152602001600020600082825461141b9190612dd2565b92505081905550816002600083815260200190815260200160002060006101000a81548173ffffffffffffffffffffffffffffffffffffffff021916908373ffffffffffffffffffffffffffffffffffffffff160217905550808273ffffffffffffffffffffffffffffffffffffffff168473ffffffffffffffffffffffffffffffffffffffff167fddf252ad1be2c89b69c2b068fc378daa952ba7f163c4a11628f55a4df523b3ef60405160405180910390a4505050565b60606000825114156114f75760405180602001604052806000815250905061167a565b60006040518060600160405280604081526020016148e760409139905060006003600285516115269190612dd2565b6115309190612e5f565b600461153c9190612e90565b9050600060208261154d9190612dd2565b67ffffffffffffffff81111561158c577f4e487b7100000000000000000000000000000000000000000000000000000000600052604160045260246000fd5b6040519080825280601f01601f1916602001820160405280156115be5781602001600182028036833780820191505090505b509050818152600183018586518101602084015b81831015611639576003830192508251603f8160121c1685015160f81b8252600182019150603f81600c1c1685015160f81b8252600182019150603f8160061c1685015160f81b8252600182019150603f811685015160f81b8252600182019150506115d2565b60038951066001811461165357600281146116635761166e565b613d3d60f01b600283035261166e565b603d60f81b60018303525b50505050508093505050505b919050565b6001816000016000828254019250508190555050565b600081600001549050919050565b600073ffffffffffffffffffffffffffffffffffffffff168273ffffffffffffffffffffffffffffffffffffffff161415611713576040517f08c379a000000000000000000000000000000000000000000000000000000000815260040161170a90612c0d565b60405180910390fd5b61171c8161106d565b1561175c576040517f08c379a000000000000000000000000000000000000000000000000000000000815260040161175390612b0d565b60405180910390fd5b61176860008383611bd4565b6001600360008473ffffffffffffffffffffffffffffffffffffffff1673ffffffffffffffffffffffffffffffffffffffff16815260200190815260200160002060008282546117b89190612dd2565b92505081905550816002600083815260200190815260200160002060006101000a81548173ffffffffffffffffffffffffffffffffffffffff021916908373ffffffffffffffffffffffffffffffffffffffff160217905550808273ffffffffffffffffffffffffffffffffffffffff16600073ffffffffffffffffffffffffffffffffffffffff167fddf252ad1be2c89b69c2b068fc378daa952ba7f163c4a11628f55a4df523b3ef60405160405180910390a45050565b61187a8261106d565b6118b9576040517f08c379a00000000000000000000000000000000000000000000000000000000081526004016118b090612bed565b60405180910390fd5b806006600084815260200190815260200160002090805190602001906118e0929190611f30565b505050565b6060600082141561192d576040518060400160405280600181526020017f30000000000000000000000000000000000000000000000000000000000000008152509050611ab5565b600082905060005b6000821461195f57808061194890613044565b915050600a826119589190612e5f565b9150611935565b60008167ffffffffffffffff8111156119a1577f4e487b7100000000000000000000000000000000000000000000000000000000600052604160045260246000fd5b6040519080825280601f01601f1916602001820160405280156119d35781602001600182028036833780820191505090505b50905060008290505b60008614611aad576001816119f19190612eea565b90506000600a8088611a039190612e5f565b611a0d9190612e90565b87611a189190612eea565b6030611a249190612e28565b905060008160f81b905080848481518110611a68577f4e487b7100000000000000000000000000000000000000000000000000000000600052603260045260246000fd5b60200101907effffffffffffffffffffffffffffffffffffffffffffffffffffffffffffff1916908160001a905350600a88611aa49190612e5f565b975050506119dc565b819450505050505b919050565b611ac5848484611278565b611ad184848484611bd9565b611b10576040517f08c379a0000000000000000000000000000000000000000000000000000000008152600401611b0790612aed565b60405180910390fd5b50505050565b606060405180602001604052806000815250905090565b6060611b388261106d565b611b77576040517f08c379a0000000000000000000000000000000000000000000000000000000008152600401611b6e90612c8d565b60405180910390fd5b6000611b81611b16565b90506000815111611ba15760405180602001604052806000815250611bcc565b80611bab84611d70565b604051602001611bbc92919061292f565b6040516020818303038152906040525b915050919050565b505050565b6000611bfa8473ffffffffffffffffffffffffffffffffffffffff16611f1d565b15611d63578373ffffffffffffffffffffffffffffffffffffffff1663150b7a02611c236110d9565b8786866040518563ffffffff1660e01b8152600401611c459493929190612a64565b602060405180830381600087803b158015611c5f57600080fd5b505af1925050508015611c9057506040513d601f19601f82011682018060405250810190611c8d91906122dc565b60015b611d13573d8060008114611cc0576040519150601f19603f3d011682016040523d82523d6000602084013e611cc5565b606091505b50600081511415611d0b576040517f08c379a0000000000000000000000000000000000000000000000000000000008152600401611d0290612aed565b60405180910390fd5b805181602001fd5b63150b7a0260e01b7bffffffffffffffffffffffffffffffffffffffffffffffffffffffff1916817bffffffffffffffffffffffffffffffffffffffffffffffffffffffff191614915050611d68565b600190505b949350505050565b60606000821415611db8576040518060400160405280600181526020017f30000000000000000000000000000000000000000000000000000000000000008152509050611f18565b600082905060005b60008214611dea578080611dd390613044565b915050600a82611de39190612e5f565b9150611dc0565b60008167ffffffffffffffff811115611e2c577f4e487b7100000000000000000000000000000000000000000000000000000000600052604160045260246000fd5b6040519080825280601f01601f191660200182016040528015611e5e5781602001600182028036833780820191505090505b5090505b60008514611f1157600182611e779190612eea565b9150600a85611e86919061308d565b6030611e929190612dd2565b60f81b818381518110611ece577f4e487b7100000000000000000000000000000000000000000000000000000000600052603260045260246000fd5b60200101907effffffffffffffffffffffffffffffffffffffffffffffffffffffffffffff1916908160001a905350600a85611f0a9190612e5f565b9450611e62565b8093505050505b919050565b600080823b905060008111915050919050565b828054611f3c90612fe1565b90600052602060002090601f016020900481019282611f5e5760008555611fa5565b82601f10611f7757805160ff1916838001178555611fa5565b82800160010185558215611fa5579182015b82811115611fa4578251825591602001919060010190611f89565b5b509050611fb29190611fb6565b5090565b5b80821115611fcf576000816000905550600101611fb7565b5090565b6000611fe6611fe184612d2d565b612d08565b905082815260208101848484011115611ffe57600080fd5b612009848285612f9f565b509392505050565b600061202461201f84612d5e565b612d08565b90508281526020810184848401111561203c57600080fd5b612047848285612f9f565b509392505050565b60008135905061205e8161488a565b92915050565b600081359050612073816148a1565b92915050565b600081359050612088816148b8565b92915050565b60008151905061209d816148b8565b92915050565b600082601f8301126120b457600080fd5b81356120c4848260208601611fd3565b91505092915050565b600082601f8301126120de57600080fd5b81356120ee848260208601612011565b91505092915050565b600081359050612106816148cf565b92915050565b60006020828403121561211e57600080fd5b600061212c8482850161204f565b91505092915050565b6000806040838503121561214857600080fd5b60006121568582860161204f565b92505060206121678582860161204f565b9150509250929050565b60008060006060848603121561218657600080fd5b60006121948682870161204f565b93505060206121a58682870161204f565b92505060406121b6868287016120f7565b9150509250925092565b600080600080608085870312156121d657600080fd5b60006121e48782880161204f565b94505060206121f58782880161204f565b9350506040612206878288016120f7565b925050606085013567ffffffffffffffff81111561222357600080fd5b61222f878288016120a3565b91505092959194509250565b6000806040838503121561224e57600080fd5b600061225c8582860161204f565b925050602061226d85828601612064565b9150509250929050565b6000806040838503121561228a57600080fd5b60006122988582860161204f565b92505060206122a9858286016120f7565b9150509250929050565b6000602082840312156122c557600080fd5b60006122d384828501612079565b91505092915050565b6000602082840312156122ee57600080fd5b60006122fc8482850161208e565b91505092915050565b60006020828403121561231757600080fd5b600082013567ffffffffffffffff81111561233157600080fd5b61233d848285016120cd565b91505092915050565b60006020828403121561235857600080fd5b6000612366848285016120f7565b91505092915050565b6000806040838503121561238257600080fd5b6000612390858286016120f7565b925050602083013567ffffffffffffffff8111156123ad57600080fd5b6123b9858286016120cd565b9150509250929050565b6123cc81612f1e565b82525050565b6123db81612f30565b82525050565b60006123ec82612d8f565b6123f68185612da5565b9350612406818560208601612fae565b61240f8161317a565b840191505092915050565b600061242582612d9a565b61242f8185612db6565b935061243f818560208601612fae565b6124488161317a565b840191505092915050565b600061245e82612d9a565b6124688185612dc7565b9350612478818560208601612fae565b80840191505092915050565b6000612491600883612dc7565b915061249c8261318b565b600882019050919050565b60006124b5610bf283612dc7565b91506124c0826131b4565b610bf282019050919050565b60006124d9603283612db6565b91506124e48261404f565b604082019050919050565b60006124fc601c83612db6565b91506125078261409e565b602082019050919050565b600061251f600883612dc7565b915061252a826140c7565b600882019050919050565b6000612542601f83612dc7565b915061254d826140f0565b601f82019050919050565b6000612565602483612db6565b915061257082614119565b604082019050919050565b6000612588601983612db6565b915061259382614168565b602082019050919050565b60006125ab602c83612db6565b91506125b682614191565b604082019050919050565b60006125ce601183612dc7565b91506125d9826141e0565b601182019050919050565b60006125f1603883612db6565b91506125fc82614209565b604082019050919050565b6000612614604483612dc7565b915061261f82614258565b604482019050919050565b6000612637602a83612db6565b9150612642826142cd565b604082019050919050565b600061265a602983612db6565b91506126658261431c565b604082019050919050565b600061267d602e83612db6565b91506126888261436b565b604082019050919050565b60006126a0600283612dc7565b91506126ab826143ba565b600282019050919050565b60006126c3602083612db6565b91506126ce826143e3565b602082019050919050565b60006126e6603183612db6565b91506126f18261440c565b604082019050919050565b6000612709601183612dc7565b91506127148261445b565b601182019050919050565b600061272c602c83612db6565b915061273782614484565b604082019050919050565b600061274f602983612db6565b915061275a826144d3565b604082019050919050565b6000612772602f83612db6565b915061277d82614522565b604082019050919050565b6000612795602183612db6565b91506127a082614571565b604082019050919050565b60006127b8600783612dc7565b91506127c3826145c0565b600782019050919050565b60006127db60b683612dc7565b91506127e6826145e9565b60b682019050919050565b60006127fe603183612db6565b9150612809826146d0565b604082019050919050565b6000612821601983612dc7565b915061282c8261471f565b601982019050919050565b6000612844600a83612dc7565b915061284f82614748565b600a82019050919050565b6000612867603483612dc7565b915061287282614771565b603482019050919050565b600061288a601583612dc7565b9150612895826147c0565b601582019050919050565b60006128ad600683612dc7565b91506128b8826147e9565b600682019050919050565b60006128d0602383612dc7565b91506128db82614812565b602382019050919050565b60006128f3601283612dc7565b91506128fe82614861565b601282019050919050565b61291281612f88565b82525050565b60006129248284612453565b915081905092915050565b600061293b8285612453565b91506129478284612453565b91508190509392505050565b600061295e826127ce565b9150612969826126fc565b91506129748261287d565b915061297f82612535565b915061298a826128e6565b915061299582612512565b91506129a0826127ab565b91506129ab826128c3565b91506129b78285612453565b91506129c38284612453565b91506129ce82612484565b91506129d98261285a565b91506129e4826124a7565b91506129ef826128a0565b91508190509392505050565b6000612a0682612814565b9150612a1182612607565b9150612a1c826125c1565b9150612a2782612837565b9150612a338284612453565b9150612a3e82612693565b915081905092915050565b6000602082019050612a5e60008301846123c3565b92915050565b6000608082019050612a7960008301876123c3565b612a8660208301866123c3565b612a936040830185612909565b8181036060830152612aa581846123e1565b905095945050505050565b6000602082019050612ac560008301846123d2565b92915050565b60006020820190508181036000830152612ae5818461241a565b905092915050565b60006020820190508181036000830152612b06816124cc565b9050919050565b60006020820190508181036000830152612b26816124ef565b9050919050565b60006020820190508181036000830152612b4681612558565b9050919050565b60006020820190508181036000830152612b668161257b565b9050919050565b60006020820190508181036000830152612b868161259e565b9050919050565b60006020820190508181036000830152612ba6816125e4565b9050919050565b60006020820190508181036000830152612bc68161262a565b9050919050565b60006020820190508181036000830152612be68161264d565b9050919050565b60006020820190508181036000830152612c0681612670565b9050919050565b60006020820190508181036000830152612c26816126b6565b9050919050565b60006020820190508181036000830152612c46816126d9565b9050919050565b60006020820190508181036000830152612c668161271f565b9050919050565b60006020820190508181036000830152612c8681612742565b9050919050565b60006020820190508181036000830152612ca681612765565b9050919050565b60006020820190508181036000830152612cc681612788565b9050919050565b60006020820190508181036000830152612ce6816127f1565b9050919050565b6000602082019050612d026000830184612909565b92915050565b6000612d12612d23565b9050612d1e8282613013565b919050565b6000604051905090565b600067ffffffffffffffff821115612d4857612d4761314b565b5b612d518261317a565b9050602081019050919050565b600067ffffffffffffffff821115612d7957612d7861314b565b5b612d828261317a565b9050602081019050919050565b600081519050919050565b600081519050919050565b600082825260208201905092915050565b600082825260208201905092915050565b600081905092915050565b6000612ddd82612f88565b9150612de883612f88565b9250827fffffffffffffffffffffffffffffffffffffffffffffffffffffffffffffffff03821115612e1d57612e1c6130be565b5b828201905092915050565b6000612e3382612f92565b9150612e3e83612f92565b92508260ff03821115612e5457612e536130be565b5b828201905092915050565b6000612e6a82612f88565b9150612e7583612f88565b925082612e8557612e846130ed565b5b828204905092915050565b6000612e9b82612f88565b9150612ea683612f88565b9250817fffffffffffffffffffffffffffffffffffffffffffffffffffffffffffffffff0483118215151615612edf57612ede6130be565b5b828202905092915050565b6000612ef582612f88565b9150612f0083612f88565b925082821015612f1357612f126130be565b5b828203905092915050565b6000612f2982612f68565b9050919050565b60008115159050919050565b60007fffffffff0000000000000000000000000000000000000000000000000000000082169050919050565b600073ffffffffffffffffffffffffffffffffffffffff82169050919050565b6000819050919050565b600060ff82169050919050565b82818337600083830152505050565b60005b83811015612fcc578082015181840152602081019050612fb1565b83811115612fdb576000848401525b50505050565b60006002820490506001821680612ff957607f821691505b6020821081141561300d5761300c61311c565b5b50919050565b61301c8261317a565b810181811067ffffffffffffffff8211171561303b5761303a61314b565b5b80604052505050565b600061304f82612f88565b91507fffffffffffffffffffffffffffffffffffffffffffffffffffffffffffffffff821415613082576130816130be565b5b600182019050919050565b600061309882612f88565b91506130a383612f88565b9250826130b3576130b26130ed565b5b828206905092915050565b7f4e487b7100000000000000000000000000000000000000000000000000000000600052601160045260246000fd5b7f4e487b7100000000000000000000000000000000000000000000000000000000600052601260045260246000fd5b7f4e487b7100000000000000000000000000000000000000000000000000000000600052602260045260246000fd5b7f4e487b7100000000000000000000000000000000000000000000000000000000600052604160045260246000fd5b6000601f19601f8301169050919050565b7f3c2f7469746c653e000000000000000000000000000000000000000000000000600082015250565b7f643d226d203135372e31332c3138392e313730363820632031332e303231363260008201527f2c2d342e32353738382033352e33382c302e33373733362033352e353233323360208201527f2c31362e3933383834202d322e36393336382c31342e3835373037202d32302e60408201527f353239362c31352e36323331202d33312e30313939352c32322e37313935372060608201527f2d31362e31343231382c31312e3634303532202d352e35343939352c33332e3260808201527f36323933202d342e38353832342c34392e333031373620312e38363037372c3260a08201527f332e3132313134202d31352e36393732362c34332e3934373534202d31302e3560c08201527f3434362c36372e323831303420332e35363632322c382e333733323520302e3460e08201527f313732362c32332e3233343132202d392e34313035352c31312e3538363133206101008201527f2d352e32353333312c2d31352e3833363735202d362e31383138332c2d33332e6101208201527f3237363431202d31382e32383832362c2d34362e3333333932202d31312e31376101408201527f3938312c2d31362e3036393135202d32332e3139313836372c2d33332e3130396101608201527f3333202d32342e3231373636332c2d35332e3336313933202d352e31393432336101808201527f312c2d32302e3731353336202d32352e3630373437322c2d33312e37353330346101a08201527f202d34332e333038342c2d34302e3530383734202d31322e3236393739342c2d6101c08201527f362e3630373439202d31342e3237303130392c2d33352e323537373820342e376101e08201527f36333836362c2d33302e31323634342031312e3033383635362c382e353238306102008201527f322032362e3335343531382c2d342e31333832392031362e3639393338372c2d6102208201527f31352e373035353320362e3635303733392c2d31332e3431333739202d352e396102408201527f38353233352c2d33332e3030323339202d31372e3037333533312c2d31352e326102608201527f37393032202d31332e3030323136322c31302e3136343631202d33302e3634336102808201527f3131362c31362e3038313236202d34362e3935393135392c31312e34303139376102a08201527f202d31302e333236363336392c2d31352e383033342031392e3839383636372c6102c08201527f2d33312e38363434322032392e3031393033322c2d31362e31383236342031366102e08201527f2e3735303730332c372e36333739322033312e3738303738382c2d362e3638326103008201527f30392033382e3035343236352c2d32312e303231323620332e3337303937312c6103208201527f2d382e39393137322032302e3039323632332c2d31342e313838322031352e336103408201527f32373935362c302e3734343635202d352e3532393934382c31342e33373230346103608201527f202d31362e3232323137352c32382e3432303334202d31322e3430383630342c6103808201527f34342e363437363520322e3130363734312c382e38323935372032342e3636376103a08201527f3937312c33302e373039353620342e3232363536342c32392e3131373733202d6103c08201527f31312e3035373838332c2d352e3933393938202d33322e3933343035342c2d336103e08201527f302e3731323134202d33392e3335343130352c2d372e323334343520322e39366104008201527f333236342c32302e32303032392032342e3835343930362c32382e34373639356104208201527f2034312e37343236372c33342e333933313920382e3233303736342c362e39386104408201527f3137322032342e3139343632322c312e333135372031312e32343038332c2d376104608201527f2e3932363732202d392e3237323736312c2d31302e3039393737202d32372e376104808201527f37333230322c2d382e3530363339202d33342e3030393832362c2d32312e31396104a08201527f3239382031372e3838303237312c302e303330332033302e3735363535322c316104c08201527f382e33303739372034352e3932323230382c32362e38313139352031372e36316104e08201527f3938392c31332e3031373536202d302e38363538312c32392e3635313833202d6105008201527f302e303730342c34342e3933393836202d322e36333336392c372e38383934206105208201527f31302e34353334382c33302e30333230342031342e33303534332c31362e38376105408201527f303035202d302e39313332362c2d362e3235353335202d342e34313338312c2d6105608201527f31382e3734393933202d302e33303135382c2d352e333434383720332e3734396105808201527f31382c31372e343731343320372e30383836312c33352e343632362031352e396105a08201527f393231362c35312e32303030312031312e38353139312c2d31392e32333237346105c08201527f20322e31333536362c2d34312e383732373220302e303334362c2d36322e33336105e08201527f353433202d332e36353936362c2d31392e3233383234202d322e36393137322c6106008201527f2d33392e3434333639202d392e39333730332c2d35372e393138373920322e346106208201527f3639382c2d31332e333631372033312e35373638392c2d382e333537303520336106408201527f302e32373834332c2d31302e3931333131202d31372e38363437382c2d322e376106608201527f30373836202d32342e35383736342c33302e3532393433202d322e393739352c6106808201527f32322e393539362031332e36363633342c2d342e33363134382032382e3336376106a08201527f38372c2d31322e373734362033322e353137382c2d32372e3438313037202d346106c08201527f2e38393136372c2d31352e3539383434202d32332e32363037322c2d392e39336106e08201527f313535202d33342e35313133312c2d352e3637303639202d31332e35323739366107008201527f2c382e3436373139202d32382e31373338382c2d352e3539323737202d31362e6107208201527f34383230362c2d31372e393434313920382e31393238392c2d31322e343830386107408201527f37202d362e32343436312c2d32382e343336323520302e363532332c2d34322e6107608201527f33393033322031302e30313739382c2d31302e3937343639202d302e323930386107808201527f2c2d32372e3738353532202d31302e373839342c2d33342e3335353436202d316107a08201527f342e31353638312c2d352e333639343933202d33312e3135323937332c2d362e6107c08201527f393939313434202d34352e3738333933342c2d332e35393736202d31352e33336107e08201527f323032382c372e3732383831202d31322e3637373637392c32382e31353236326108008201527f202d32352e3530353134362c33382e3230383932202d31332e343039352c31316108208201527f2e333632373820342e3139343334352c2d31332e303930303320342e393839346108408201527f38392c2d31392e383139343320332e35353232382c2d31302e363638383320396108608201527f2e3838323030362c2d32302e3337333232332031332e33313233392c2d33302e6108808201527f38393039303320432037362e3334333535322c36372e3134313535382036342e6108a08201527f3237313038312c34382e3435383836322034362e37393033322c34342e3334326108c08201527f3931322033352e39353234392c33352e3234303430362035342e3435363137366108e08201527f2c33312e3436313738312035392e3833363536312c33382e34383637363620376109008201527f332e3439373436352c33382e3931333632312039362e37323931322c32342e326109208201527f38333836382039302e3539313432352c31302e3137323738312038362e3334316109408201527f3634362c322e3031303531352039342e37393237342c2d342e383133373436206109608201527f39372e3632333837342c362e35323438393233203130322e39323432312c32316109808201527f2e393031313439203132342e333139362c33382e353936323334203133372e366109a08201527f3237392c32312e373533343034206320332e34343738342c2d382e34313637346109c08201527f2032362e38383839322c2d32352e313739393634382032332e30353632332c2d6109e08201527f362e353739333637202d322e373830352c31362e3736383930362031372e3836610a008201527f3831332c2d372e333932353834332032302e37323030352c31302e3332323837610a208201527f312031332e303937362c32312e363030333634202d31372e35353835362c3234610a408201527f2e323134393634202d32352e32393436332c33392e313936313834202d31302e610a608201527f35383437382c31302e32353137343720312e313632312c32392e383632313534610a808201527f202d31312e32363037312c33372e323539353038202d31312e34333430382c32610aa08201527f2e323734343820322e30393433362c32332e353231373220392e38353632322c610ac08201527f32372e39343732382031312e36363034342c362e383532392033312e31383738610ae08201527f372c2d322e36373930352033342e34323935352c31362e393639323120352e38610b008201527f393237322c31302e3137383531202d31342e38393834342c31372e3239303831610b208201527f202d362e35353030372c342e3136393034202d372e32393033322c2d382e3435610b408201527f393831202d32332e38333438372c2d31312e37383236202d33332e3736373236610b608201527f2c2d31302e3933333935202d372e37363837392c31322e393934303220312e37610b808201527f323431392c33302e333631313920342e37313334322c34342e30343238362031610ba08201527f2e30363039362c312e373639303420322e323838322c332e343333323520332e610bc08201527f353939332c352e3032333634207a22202f3e0000000000000000000000000000610be082015250565b7f4552433732313a207472616e7366657220746f206e6f6e20455243373231526560008201527f63656976657220696d706c656d656e7465720000000000000000000000000000602082015250565b7f4552433732313a20746f6b656e20616c7265616479206d696e74656400000000600082015250565b7f3c2f7374796c653e000000000000000000000000000000000000000000000000600082015250565b7f2e6179656b696c7561535647436f6c6f72207b66696c6c3a20236633363b7d00600082015250565b7f4552433732313a207472616e7366657220746f20746865207a65726f2061646460008201527f7265737300000000000000000000000000000000000000000000000000000000602082015250565b7f4552433732313a20617070726f766520746f2063616c6c657200000000000000600082015250565b7f4552433732313a206f70657261746f7220717565727920666f72206e6f6e657860008201527f697374656e7420746f6b656e0000000000000000000000000000000000000000602082015250565b7f2261747472696275746573223a22222c20000000000000000000000000000000600082015250565b7f4552433732313a20617070726f76652063616c6c6572206973206e6f74206f7760008201527f6e6572206e6f7220617070726f76656420666f7220616c6c0000000000000000602082015250565b7f226465736372697074696f6e223a202254686973206973206120756e6971756560008201527f204179656b696c7561204e46542067656e65726174656420627920776562617060208201527f70222c2000000000000000000000000000000000000000000000000000000000604082015250565b7f4552433732313a2062616c616e636520717565727920666f7220746865207a6560008201527f726f206164647265737300000000000000000000000000000000000000000000602082015250565b7f4552433732313a206f776e657220717565727920666f72206e6f6e657869737460008201527f656e7420746f6b656e0000000000000000000000000000000000000000000000602082015250565b7f45524337323155524953746f726167653a2055524920736574206f66206e6f6e60008201527f6578697374656e7420746f6b656e000000000000000000000000000000000000602082015250565b7f227d000000000000000000000000000000000000000000000000000000000000600082015250565b7f4552433732313a206d696e7420746f20746865207a65726f2061646472657373600082015250565b7f45524337323155524953746f726167653a2055524920717565727920666f722060008201527f6e6f6e6578697374656e7420746f6b656e000000000000000000000000000000602082015250565b7f3c646566732069643d226465667334223e000000000000000000000000000000600082015250565b7f4552433732313a20617070726f76656420717565727920666f72206e6f6e657860008201527f697374656e7420746f6b656e0000000000000000000000000000000000000000602082015250565b7f4552433732313a207472616e73666572206f6620746f6b656e2074686174206960008201527f73206e6f74206f776e0000000000000000000000000000000000000000000000602082015250565b7f4552433732314d657461646174613a2055524920717565727920666f72206e6f60008201527f6e6578697374656e7420746f6b656e0000000000000000000000000000000000602082015250565b7f4552433732313a20617070726f76616c20746f2063757272656e74206f776e6560008201527f7200000000000000000000000000000000000000000000000000000000000000602082015250565b7f3c2f646566733e00000000000000000000000000000000000000000000000000600082015250565b7f3c73766720786d6c6e733a7376673d22687474703a2f2f7777772e77332e6f7260008201527f672f323030302f7376672220786d6c6e733d22687474703a2f2f7777772e773360208201527f2e6f72672f323030302f73766722206865696768743d223336312e343434393560408201527f222077696474683d223139322e3732313932222076657273696f6e3d22312e3160608201527f222076696577426f783d22302030203230302e3732313933203338312e34343460808201527f3936222069643d226179656b696c75615f737667223e0000000000000000000060a082015250565b7f4552433732313a207472616e736665722063616c6c6572206973206e6f74206f60008201527f776e6572206e6f7220617070726f766564000000000000000000000000000000602082015250565b7f7b226e616d65223a20224179656b696c7561204e4654222c2000000000000000600082015250565b7f22696d616765223a202200000000000000000000000000000000000000000000600082015250565b7f3c706174682069643d226179656b696c7561535647506174682220636c61737360008201527f3d226179656b696c7561535647436f6c6f722220000000000000000000000000602082015250565b7f3c7374796c652069643d227374796c65535647223e0000000000000000000000600082015250565b7f3c2f7376673e0000000000000000000000000000000000000000000000000000600082015250565b7f3c7469746c652069643d226179656b696c75615469746c65223e4179656b696c60008201527f7561200000000000000000000000000000000000000000000000000000000000602082015250565b7f626f6479207b66696c6c3a20236666663b7d0000000000000000000000000000600082015250565b61489381612f1e565b811461489e57600080fd5b50565b6148aa81612f30565b81146148b557600080fd5b50565b6148c181612f3c565b81146148cc57600080fd5b50565b6148d881612f88565b81146148e357600080fd5b5056fe4142434445464748494a4b4c4d4e4f505152535455565758595a6162636465666768696a6b6c6d6e6f707172737475767778797a303132333435363738392b2fa26469706673582212201bde9ddcd1944a68bacea0c536e2ee8742756164116d685de7cf3e92006ef8e964736f6c63430008040033",
  "linkReferences": {},
  "deployedLinkReferences": {}
}